:10000000001C0020ED0200000000000000000000C5
:1000100000000000000000000000000000000000E0
:1000200000000000000000000000000000000000D0
:10003000000000000000000000000000B50100000A
:10004000E1010000FD010000B9010000CD01000048
:1000500000000000002934D00123002210B488429F
:100060002CD301242407A14204D2814202D20901E7
:100070001B01F8E7E400A14204D2814202D2490008
:100080005B00F8E7884201D3401A1A434C08A042AB
:1000900002D3001B5C0822438C08A04202D3001B41
:1000A0009C082243CC08A04202D3001BDC08224358
:1000B000002803D01B0901D00909E3E7101C10BC7C
:1000C0007047002801D00020C04307B4024802A1B5
:1000D0004018029003BDC046D90000000029F0D0AE
:1000E00003B5FFF7B9FF0EBC4243891A1847C04653
:1000F000002941D010B4041C4C40A4460123002226
:10010000002900D54942002800D5404288422CD31E
:1001100001242407A14204D2814202D209011B0119
:10012000F8E7E400A14204D2814202D249005B0018
:10013000F8E7884201D3401A1A434C08A04202D380
:10014000001B5C0822438C08A04202D3001B9C08C1
:100150002243CC08A04202D3001BDC082243002823
:1001600003D01B0901D00909E3E7101C6446002CE9
:1001700000D5404210BC7047002806D003DB0020A9
:10018000C043400801E08020000607B4024802A1F5
:100190004018029003BDC046190000000029EBD0B2
:1001A00003B5FFF7A7FF0EBC4243891A1847C046A4
:1001B0007047C046FEE70000034B01225A70A0239F
:1001C0000022DB051A707047740C0020034B0122DB
:1001D0009A70A0230022DB059A707047740C0020EF
:1001E00008B5054B01221A70A0230022DB05DA7640
:1001F00000F0C4FE08BDC046740C002038B5802550
:10020000ED052B79DBB2002B0CD130490B604B6034
:100210002B89081C9BB28B608A680C30103106F069
:10022000D1FE47E0012B0DD1284BD968002941D0E0
:100230005A68186982423DDA5A68501C58602B7A15
:100240008B5437E0022B30D1204CE368002B2AD0AE
:10025000226821698A420CDA22689B5C1BBAEB6037
:10026000A3682068C01880B206F0F6FE2368013348
:1002700017E0A2682368201C211CD2180C30103112
:1002800006F0A0FEE368002B0DD0A16822688A1852
:10029000A2601B781BBAEB60A06880B206F0DCFE9F
:1002A0000123236006E0EB6004E0032B02D1074B3F
:1002B00000225A60C0468023DB0501221A70C04626
:1002C00002221A7000221A7038BDC046280300208E
:1002D00080230222DB05FF321A600421024AFF312B
:1002E000118000221A70704706000040F8B5A02364
:1002F000DB055B68494A1F21DBB21160EF2B0BD095
:10030000EE2B01D80133DBB2A022D2055168FF20C9
:10031000814319435160F1E70023414A41499A184A
:100320008A4204D24049C95804331160F5E73F4B73
:100330003F4A191D043B934203D200221A600B1C52
:10034000F6E7EFF308823B4B191D043B9A4203D9B1
:10035000394818600B1CF7E7FFF7BAFF37493848F0
:10036000053904F0BFF8374C374D01235B42237148
:100370006371A371E3712B1C3C331A782B1C3D3342
:100380001B7880B21B02134398423FD106F002FE55
:100390002E4B2F4918882F4A88420BD06E7D188823
:1003A0002B7D36023343984204D113889BB22371CC
:1003B0001B0A637113888B421BD0EE7DA87D1388C6
:1003C00036023043834214D100200423013BDBB2C8
:1003D000FF2B07D0204EEF18F65C3F79B742F5D1DE
:1003E0000120F3E7002804D013889BB2A3711B0AF5
:1003F000E371637922791B0213438B4206D0E279C1
:10040000A37912021A43124B9A4204D1134B0222CF
:100410001A6062B6FEE701F00DF9F7E71C00005024
:100420000000002028030020A09400002C030020DE
:100430005C0C0020C40C0020CDCDCDCD00C0000050
:1004400000000000780C0020C0BF0000FEB30000D8
:10045000FFFF0000BEBF000000B4000000E100E0AC
:10046000014B18607047C046880C0020014B18688B
:100470007047C046880C0020014B18607047C0468A
:100480008C0C0020014B18687047C0468C0C002073
:10049000014B18687047C0460000002038B5194C61
:1004A000256804F061FB2863256804F061FB68633C
:1004B000256804F061FB6861256804F061FBE86170
:1004C000256804F071FBA861256804F0BDFB286273
:1004D000256804F07DFB6862256804F08DFBA86246
:1004E000256804F09DFB084B08491B680968E86211
:1004F0001878097C2268414302331161FC32136091
:1005000038BDC046000000208C0C0020880C002064
:1005100082B0F0B589B0109C151C0F93069302941D
:1005200007900E1C119C03F0A3FF47793A4B0497E8
:100530008279964206D11B680021DA69AB00D05A55
:1005400003910BE01A68354B52691968731C89686E
:1005500003964B43EB1801339B00D05A0499714327
:1005600049194A00A4182388069E0193019F731815
:10057000874203D8C61B029FBE521CE0029EB618DB
:1005800005960027F65F013610D01F787EB2B4467C
:10059000013601DA013703E06646002E06DD013F31
:1005A0001F7002235B42238001202FE0069F7918F1
:1005B0000F78002F01D120800CE07FB27C1C05D188
:1005C000019E059F301A3880002002E0012F01D1E2
:1005D000FF2008701978039C049E079F48B274435B
:1005E0007D19002805DC029EB25E013208D0002988
:1005F00006D12A5700203E2A08DC0131197005E097
:100600002A57002A01DD01391970002009B0F0BC19
:1006100008BC02B01847C0460000002014030020A8
:10062000F0B58BB000AF03F023FF06F063FD584C2C
:100630006E4623689D68DB687D625A00111C0E318E
:100640009B00C9080E33C900DB08DB00761AB546EB
:10065000F61A6D4600216846B546BD61FE6008F099
:1006600049FE002004F01AFC7E6A4A4A2068156898
:10067000B20052420368BA60321C5A439100F961D9
:10068000B107711A79609107891A3A62013B32D336
:1006900044683E6A3219261C5E437618B400FE6830
:1006A000920034197C61FC69A2420BD07C6904265B
:1006B000A418A4466C697642A458B44466463460D3
:1006C000043AF0E7BE683A6AA419FC617C6A7E6865
:1006D000121B3A628919D9E72F49F8697E23D2B2F1
:1006E0005B4208704A708A70CB7001205223BA694D
:1006F0000B7106F0F5FB06F0EBFA0B2845D1002054
:1007000004F0CCFB224B1968224B08681C687B6AFA
:10071000F86143439A003A629A07D21A3A617B61C0
:10072000844666464A68013EB446D5D3654655437D
:100730007E691A48B31812185219BE6938695200F6
:10074000B2182D18FE68AD0075199B003D603E6A19
:10075000B3420ED03D68E818656904380668E85869
:10076000301A0025565F864200DA1080043B023AB8
:10077000EDE7BD6876193E627D6A7E69761B7E6113
:100780007D683E6976193E61CBE7BD460BB0F0BD92
:100790001403002000000020E0030020FFFFFF7F83
:1007A00008B502F0A3FB021E05D10749A9230B716E
:1007B00006F096FBFEE7054B1B6803CB04F04AF8F6
:1007C000FFF76CFE08BDC046E703002014030020BD
:1007D0000E4B32201B680022191C8C3148606420AB
:1007E000886002200861012048610A60CA60181C04
:1007F0000121A83049420160826001618261BC33FD
:1008000004380160826001611A60704700000020B6
:10081000F0B585B000AFB960386004F00BFD83001F
:100820000A33DB08DB006946C91A8D46041C68469A
:1008300004F006FD63000833DB08DB006E46F21AA5
:1008400095466D46281C7D6004F014FD4D4B1B68D9
:100850001A1C9432116863290BDD01204042844642
:10086000181C0021A830654611601C38C561416222
:1008700001601168013111601A1C903211686329FE
:100880000DDD012040428446181C0021A430116077
:1008900065468160191C05608C3101200860116873
:1008A000013111601A1CA032116801290BDD0120F1
:1008B00040428446181C0021B8306546116020383B
:1008C000056281620160116801311160191C9C315F
:1008D0000A68012A09DD002201200A600A624042FA
:1008E0001A1C88619832012111601A1C9C3211680F
:1008F000013111600022111C013C07D3A0003058C7
:100900007D6809186000285A1218F5E7181C03249E
:10091000013C002C19D0051CB0352E688E4200D247
:100920002960051CA8352E688E4200D92960051C57
:10093000C0352E68964200D22A60051CB8352E6854
:10094000964200D92A600438E2E71A1C8C321268F9
:100950003D6892009A18111CAC31A43209681268E3
:10096000BE688A1A2A801A1C98321268BD46920004
:100970009B181A1CBC32B43312681B68D31A33801C
:1009800005B0F0BD00000020F0B5234F1D1C3B68F2
:10099000161CDA6885B0019192000021041C301CFD
:1009A00008F0A8FC3B68281C1A690021920008F096
:1009B000A1FC019F002F0CD0201C04F06FFA174BF4
:1009C000301C1B68291C5A69DB6906F09DFC013F3D
:1009D000F0E7002C0FD1114B1B685F699B690293F4
:1009E00004F0B0F8039004F0B7F80299031C039ADE
:1009F000381C06F09DFB301C291C019A06F05CFD9A
:100A0000002C06D1054B201C1D6804F0ADFBFC3505
:100A1000686005B0F0BDC04614030020000000204F
:100A2000F0B5274D87B02B680591DA690021920057
:100A3000039008F05FFC06F069FB04904478002CFA
:100A400025D0042004F02AFA286842690292029B09
:100A5000013B019319D383690199039E5943C91836
:100A6000890071180439013B0DD38668029F7E43CB
:100A70009E19059F0136B600F2590E689446B4449B
:100A800067460F60EEE7019AE0E7013CD7E72F6881
:100A90007D69013D11D3BC69039A261C6E4336194A
:100AA000B6009619043E013CF3D3049B3068597894
:100AB000FFF7D0FA00043060F4E707B0F0BDC0469D
:100AC0001403002030B5244D85B02B681A1CE03289
:100AD0001178603A002904D1191CC4310978002921
:100AE00001D0002111701478002C22D01A1C083279
:100AF000D26F1A4901921A6C002002929B6B01AAD4
:100B0000039303234B707C235B42CB7010230B7148
:100B100006F0E6F9296800240B1C08338831DA6FE7
:100B200009688A4202DC0132DA6711E0DC670124DD
:100B30000EE01A6C9B6B0A49019202930920642310
:100B400001AA0B71039406F0CBF92B680833DC671C
:100B5000201C05B030BDC046000000201801002058
:100B60001F010020F0B58FB004AFB9607A613B611E
:100B7000F86006F0CBFA7A4E69463368F8611C6873
:100B8000796004346400221C0832D208D200881A2A
:100B90005A68854604325200131C0833DB08DB0018
:100BA000C01A04A9854604ADB961281C002108F0CB
:100BB000A1FB221C0021B86908F09CFB694CF86875
:100BC00023685A69191C9B690090B8693831043050
:100BD0000190281D0290786903F072F8FA69386074
:100BE0002368127B58690092BA69191C0295019218
:100BF000743138337A6903F0D3F97B68B8689D465D
:100C00002368DA69191C1B6A00903831386902F0D0
:100C1000CDFF3B680343DBB2BB6106F083FA051CE2
:100C200006F0EAFD2D79012D0AD19C300368002BD6
:100C300006D106F063F8012802D0281C03F0A4FDB9
:100C40002568281C291C7431383003F083F9336877
:100C500045491A68A86758680A709A68CB7848703E
:100C60007F2002258343802040422B430343CB70E7
:100C700053238A700B7101327B6952009A1801204C
:100C800006F02EF9336839491B697F204B70CB7809
:100C90008022834352422B431343CB7001206D23A8
:100CA0003A690B7106F01CF933682020196821227B
:100CB000C15558682221D0559A682320CA55591D1C
:100CC000C97F1B69C15524212520CB55C35D7F21D8
:100CD0008B43802040422B4303432521CB550132D7
:100CE0007B6952009A180092391C002201202031A1
:100CF000131C06F0BBF802F0AFF802F0CBF8FFF7D8
:100D0000E1FE002827D12368586904F0ABF9236875
:100D1000986F04F0C9F803F073FEB86900280DD18C
:100D2000236879691A1C38321B68F86806F068FA7B
:100D30002368B8681A68396906F0B6FA022003F029
:100D40004FFD386906F0F0FD064B18687C3007F05F
:100D5000E5FC002000E0281CBD460BB0F0BDC046FD
:100D60001403002000000020E003002018010020F0
:100D7000F0B59400231C0A3385B0DB08DB0069461C
:100D8000C91A02AF8D4602AA061C7A60101C002107
:100D9000221C08F0AFFA231C0833DB08DB0069468D
:100DA000C91A8D4602AD281C221C002108F0A2FAA7
:100DB0000C4C301C2368596B1A6B743300910193EF
:100DC000291C7B6807F0CCFC301C02F0BDF82368BE
:100DD000301C1A6B5B6B291C00937B6806F03AFF92
:100DE000BD46F7BD0000002070B50C1C151C1E1C74
:100DF00007F054F9144B201C1B68196B5A6B07F051
:100E000053FA201C07F062FE201C07F049FB321C3D
:100E1000201C291C07F000FC201C291C02F02EFEBF
:100E200006F080F9041C06F0E7FC8E300378002BF6
:100E300009D12379002B06D005F060FF012802D0EC
:100E4000012003F0A1FC70BD0000002038B508F0BF
:100E500037F9051C012008F047F9041C281C03F091
:100E60000DFB201C03F016FB38BD38B508F0DCF98B
:100E700008F02EF9051C002008F036F9041C281C87
:100E800003F0FCFA05F09CF8002004F05BF8201C4D
:100E900003F000FB03F050FC38BD10B5A4B08C2269
:100EA000041C002101A808F025FA01A8211C07F064
:100EB000EFFB07F017FC01A8211C02F07BF824B01F
:100EC00010BD000038B506F097FC294C8E30236821
:100ED00001781A79002902D151B2481C04D10025A9
:100EE000DD60AA420DD116E0D8681A69904202DA94
:100EF000D8680130D86001290DD0DB6893420ADB45
:100F000001251C4900202B1C0E33021C0B7105F01F
:100F1000E7FF23681D7123681A79002A03D1164A56
:100F20001268127804E0012A03D1134A1268527839
:100F30001A60186804F014FA2368051CFC3358681A
:100F400004F032FA2D1A002D0BDD2368186804F026
:100F500007FA2368051CFC33586804F025FA281AA0
:100F600000E0012003F010FC03F030FC38BDC04667
:100F700000000020E70300208C0C002008B505F0DD
:100F8000BDFE002802D1022003F060FF08BD000072
:100F9000F0B589B0061C06F0C5F8059006F02CFCEB
:100FA000031C98331A68A14B002A08D1A0300268AC
:100FB000511E8A41D2B20492002A06D001E00120DB
:100FC00004901A680021CC3205E01A68CC3211680E
:100FD000FE2901DC013111601B6800211A1CC83296
:100FE00011700499002904D091490968097D0029EC
:100FF0005AD0181CC7300178C9B2002908D003782C
:101000005BB2022B00D0012313700023037070E148
:101010001D1CC4352C78002C09D0012414701A1C16
:10102000C532D033017029701170196062E10498E3
:10103000002839D1191CD0310C68002C09DD013C85
:10104000012C01D00C602FE0049B0B600323137074
:1010500050E11A1CFC3212681188764A914223D062
:101060001A1CDC321188744A126852888A421BD8D2
:101070006F4C2068427C181CCC300068904213DB17
:1010800007AA1180DE331B886C49538002234B7002
:10109000CB70049815230B7105F022FF634B226877
:1010A0001B68927CD0331A60614C2768F87C00285A
:1010B00000D01EE104995D4D002900D082E02C682B
:1010C000231CFB331B78002B56D03B1C2C331B7886
:1010D000002B51D0231C0791F0331B680393231C72
:1010E000DC3303981A8843009A533B1C2D3319783C
:1010F00004984B00F618031C994206D05A00B21A05
:10110000023A128801338018F6E7FEF7F1FF0790E4
:10111000FA8B231CF433904202DA1A68013200E0A1
:1011200000221A603A1C2E3212781B68934215DD99
:1011300042497C235B42CB7007AA1623012400207E
:101140000B714C7005F0CCFE2B6800201A1CF0329D
:10115000F4331060186005F005FFCBE03B1C2D3325
:101160001A780399231C013AF033914202DA0A1CDF
:10117000013200E000221A60D8340137FB7F226878
:101180009A4217DB2E4900201223021C0B7105F036
:10119000A7FE2A682648131CD43319680068013159
:1011A00019600230C07F814204DB00211960C8321F
:1011B000022313702A680023111CC631D8320B7029
:1011C000136047E02B681A1CD03210602A32127864
:1011D000002A3FD0191CDC31098807AA1180DE33B0
:1011E0001B881649538002234B70CB7019230B7157
:1011F00005F076FE2B682268191CDC310C88D08B38
:10120000163984421ED2181CDE300488508D844268
:1012100018D2097800291DD1D83301321968D27F3C
:10122000914217DA0131196014E0C0460000002035
:10123000880C0020FFFF00008C0C0020180100200B
:10124000E703002001220A70191C0022D831D43390
:101250000A601A60294D2B681A1CFA321278002A8B
:1012600047D105980279002A41D01A1CC43214785B
:10127000002C3ED1224E986B3768798BBA8BFB8A53
:101280003F8B009705F004FF36682B68718CB28C99
:10129000071C986BF38C368D009605F0F9FE2B68D1
:1012A0001A1CDC321188DE33B94202DA1A88824213
:1012B00010DB07AA11801B881249538002234B7050
:1012C000CB70002017230B7105F00AFE2B6801225A
:1012D000C5331A702B681A1CC5321278002A08D040
:1012E0000499002905D0C43301221A7002E0C533E5
:1012F0001A700124201C09B0F0BDC0460000002077
:10130000880C002018010020F0B591B002AF03F066
:10131000AFF8061C03F0C4F8386103F0B5F8786044
:1013200003F0C4F8031CF86050331878FB680822F7
:101330005133197804F072F8B14B68461C680021EB
:10134000E3681A1C0E32D208D200801A2269854640
:101350000E32D208D200801A02AD8546FD6102AD80
:101360007D6272799A18131C0E33DB08DB00C01AF9
:1013700053000E33DB08DB008546C01A02AD8546FC
:10138000C01ABD6102AD854602A87861B86907F050
:10139000B1FFE1687279281C5218012152004942BC
:1013A00007F0A8FFE36872799649D218520078696D
:1013B00007F0A0FFE2683969F8693D6307F058FF5C
:1013C000396922693131FF31786A4024002507F0FC
:1013D0004FFFBC603D62796AF86905F0F3F80020C0
:1013E00003F05CFD864D88492B68884C5A68186864
:1013F0004A709A680423CB7051230B7123688A705A
:101400005B690132920008709A18022005F068FDAD
:101410002B687F491B6904254B705A230B71236885
:101420000220DA69CD7005F05BFDB479013C631CE4
:101430002CD07579013D6A1CF8D0737978696343C3
:10144000EB185B001A5A734B9A42F3D0B9693022F9
:101450003960F9627863D219694609CA09C1211C49
:101460003B68F8692A1CFFF753F8002803D03B6A51
:1014700001339BB23B627379BA6963433869EB18F5
:10148000D15CC25C8A18F969CA54D3E7F479013C8B
:10149000601C2FD0B17973797D694B43E3185B00F1
:1014A0005A5B5C4B9A42F2D0BD6930203D60FD62D0
:1014B000C0197D6984467D636846624628CA28C093
:1014C000221C3B68786AFFF723F8002803D03B6AA8
:1014D00001339BB23B627379B279BD695A432B19D0
:1014E0003D699A5C29193131FF310B787D6AD31837
:1014F0002B55CCE7424B3C6A1B68DA681B69D31852
:101500009C4206DABB68013BDBB2BB60002B00D01B
:1015100061E73D49B3797F250B70737980244B7067
:101520008B70CB786442AB4301252B432343CB70B4
:101530000820D223FA690B7105F0D2FC3449F37903
:101540007F204B70CB787A6A83431D432C43D3238F
:1015500008200B71CC7005F0C3FCB379013B0FD3AD
:101560007279013AFAD371797D685943FC69891817
:10157000E81861187B300C78007820180870F0E7C4
:10158000F379013B08D37C687D6AE2188D321178CB
:10159000EA5C8A18EA54F4E7F869796A05F012F807
:1015A0001949B3797F200B70737901254B708B70CB
:1015B000CB78802483432B4364422343CB70FA6966
:1015C0001D2308200B7105F08BFC1149F3797F2254
:1015D0004B70CB78082093431D437A6A1E232C431B
:1015E000CC700B7105F07CFCFB680422503318783A
:1015F000FB685133197803F011FFBD460FB0F0BD01
:1016000014030020FFFF0000E00300200000002082
:1016100018010020FEFF000008B502F035FF783009
:101620000378002B02D1FFF76FFE01E003F06CFEA0
:1016300008BD0000F0B591B002AF05F049FB041CF5
:1016400007F088FD07F0B6FD01F000FCFFF7A8F8F1
:1016500005F03EFB061E052E00D1CCE0052813D870
:10166000022800D17EE005D8002823D001286CD0C4
:10167000341CEDE7032800D1AFE00428F8D105F0D1
:1016800065FB01F0ABF9B1E0092800D1D0E007D843
:10169000072800D1B8E00828EAD105F057FBBDE0E3
:1016A0000B2800D194E100D2CEE00C28E0D105F067
:1016B0004DFB96E105F022FB002812D00128D7D17E
:1016C000CA4D02222B681969186AB961C849F861C4
:1016D0001A621E61301C3F23321C0B7105F000FCA6
:1016E00022E00125012D02D0022D0AD00FE00020BA
:1016F00000F082F903F0A4F9C0B205F03FFCFFF757
:101700008BFF0020211C021C00F0F2FE051C05F0DE
:10171000F5FA0028ACD105F0DBFA0028E2D0A7E703
:1017200005F0D6FA00280AD1FFF776FF211C012226
:10173000002000F0D3FF05F0E1FA0128F0D02B687B
:10174000FC691C62BC691C6192E705F0FFFA05F0B8
:10175000BFFA0128FBD007F0DBFCFFF721F805F00A
:10176000A9F985E7FFF772FB05F078FA04F028FC89
:10177000002003F0E7FB03F09DFBFEF78FFEFFF771
:101780004BFF05F0E3FA05F0EBFA041E052C1BD025
:10179000052805D803280AD010D8012816D106E05C
:1017A00006280ED0031C113BDBB2022B0ED805F02D
:1017B000DFFA011C201C01F015F907E004F08CFF92
:1017C00004E002F0B9FF01E002F09EFF05F080FAAC
:1017D0000228D8D0FFF749FB4AE705F0B7FAFFF730
:1017E0001BFF05F075FA0328FBD041E705F070FAFE
:1017F0000428FBD03CE705F0A9FA03F0C9FC05F08A
:1018000067FA0528FBD033E705F0A0FA012000F0C5
:10181000F3F805F05DFA0728FBD029E7002003F074
:101820003DFB03F09DFB05F053FA0828F6D01FE7B7
:1018300005F08CFA002003F031FB03F091FB05F07A
:1018400047FA0928F6D013E76C4600203C6107F000
:10185000E5FC07F0AFFC002003F074FB634C694625
:1018600023685D6818681B694543EB180733DB087C
:10187000DB00C91A8D4602AAFA6102F0F9FD02F0F6
:101880000FFE02F001FEFB695D19181C291C7D6129
:1018900003F008FD23686C465A681B69D3189B0047
:1018A0000A33DB08DB00E41AA54602ACBC6105F094
:1018B0004DFA4E4C2020236819681A79C155212011
:1018C0002221C255CA555A1DD27F1B6923202421CB
:1018D000C255CB5525220123D355FB690022391C63
:1018E00000930420131C203105F0C0FA7969F869CF
:1018F00004F068FE002003F0D1FA23683D485C68DC
:1019000005687C60002139603A687C68A24208DA88
:101910003A68A96992008958BC69A15039680131B7
:10192000F1E7A200BC691969A41805683960A446EA
:1019300000223868824206DA296A90000958644613
:1019400021500132F5E71A682821CA5578689A684B
:1019500029242A21E055CA550533DB7F2B24E35582
:1019600004242D233968DC55224B01321B68920078
:101970005B692C209A18C1550092391C0022131C57
:101980000220283105F072FA01233020C355174B8D
:1019900031211B6832201A79CA55C2555A1DD27F8F
:1019A0001B693321CA553422D3553523DC55BC6914
:1019B0000022391C10203031131C009405F056FA17
:1019C00005F086F90A2800D173E73C69A5464FE681
:1019D00005F0BCF9FEF724FE05F07AF90B28F9D0E2
:1019E00046E605F075F90C28FBD041E6140300200B
:1019F000E703002000000020F0B5D14C9BB0236825
:101A000000AF9B6878617B625B0001333B6503F04C
:101A10000BF82368FF229B68F865D31A984200DD13
:101A2000FB65F86D7C6A041B3C626C4603F002F8AF
:101A3000FC643C6D684665002B1C0833DB08C14C18
:101A4000DB00C01A012363707C235B423A1C85468D
:101A5000E370211CB12300205C3223716E4605F037
:101A60003FFA0023211C3C6DA34205DA3C6A5A0070
:101A70001819B0520133F6E7E4B24C70FC6100244F
:101A8000321C0223201CCB700C7105F029FA2B1C90
:101A9000F86C08338546DB08DB006946C91A8D46B9
:101AA000C91A68468D46B963386403F0C3FB3861D0
:101AB000012002F00BFF211C2A1CB86B07F01AFC56
:101AC000211C2A1C386C07F015FC3B6D68469B00F6
:101AD000BB610A33DB08DB00C01A396985466A46F8
:101AE000C01A89007A6385463863B960FC640021B6
:101AF000BA69786B07F0FEFB386BFF21BA6907F013
:101B0000F9FB00248E4B7C651B687C6D5B689C42F6
:101B10004ADA3C6A0026E4B2201CFC6302F095FF1E
:101B200002F062FF02F0C7FE3C6B7D6B386D013640
:101B3000F217C30F86425341DBB2FB62002B06D182
:101B4000F96B8819C0B202F080FF02F04DFF6B46BE
:101B5000FB60BB686A460A33DB08DB00D01A8546A7
:101B60006A46BA6403F06CFB00231A1C39698A4286
:101B700005DAB86C9100415801325B18F6E72A6823
:101B8000934200D92B602068834200D22360F96819
:101B9000FA6A8D4604340435002A02D102F08BFE25
:101BA000C4E77C6D0134ADE70024674D7C653B6D77
:101BB0009C4217DA796B3A6BA300C858D358C01A05
:101BC000854204DD3B6A051CE318BB627C64796DC9
:101BD000814200DA786502F06DFE3A6C6300D05203
:101BE0000134E4E7786D02F065FE554B1B685B88B5
:101BF000984206DA7C69012C03D0FC6DBC627C6AD9
:101C00007C64524D32222C68796C231C8C335A60D0
:101C100064229A60012202205A613A6B81408A58FC
:101C2000002618611E60101CDE607A60F96302F005
:101C300041FEA434FB6B796B206058582C6802F08D
:101C400039FE2B68AC3420601A1C41497C69B832DB
:101C5000C03311601E60012C22D1BA6B331C3C6D65
:101C6000A34209DA3C6C5900615A1088884200D2BC
:101C7000118001330232F2E77C6C6300BC6B1A5BAB
:101C8000FC6C131CA24200D2231C2E499BB2FC699F
:101C9000FB64002002234C70CB700871BA6B0CE01F
:101CA000786D02F007FE274980B2FC69F8643A6C4F
:101CB0000220C8704C700E71301C05F011F97C6C5C
:101CC0006021CC53BC6A6220C453786C396C4400E8
:101CD0000C192388F86C64221A49D3536623D8530D
:101CE00004234B703A1C0223CB706032B2230020D5
:101CF0000B7105F0F5F82388144C2268111CFC3197
:101D000009680988994227D207F08EFA051C07F066
:101D1000F3F90378061C002B07D0012005F022F907
:101D200023680236FC331E6027E0002D25D1094BC5
:101D30001B68DB7C002B20D1012005F007F91CE09B
:101D40008C0C002018010020FFFFFF7F0000002006
:101D5000FFFF0000880C0020FB321278002A0CD014
:101D60000E4D29684A889A4207D9002005F0FAF8F2
:101D700023682A68FC3302321A607C69002C06D181
:101D8000BC6AE0B202F061FEBD461BB0F0BD04F0DB
:101D90009FFF072800D1AAE6F2E7C0468C0C00207E
:101DA000F0B58DB0161C0591049007F03DFA039034
:101DB00004F0B4FF051C04F0B9FFAB4C029023689B
:101DC0001A1CF8321278AA4222D0002D09D0A74955
:101DD00000203B23021C0B7105F082F802210391C5
:101DE00011E0029A2F1C002A0ED1A0493C232A1C84
:101DF000281C0B7105F074F82368FA331B785A1EFF
:101E00009341DBB2039301272368F8331D701FE071
:101E10001A1CF932127802998A4218D0002907D187
:101E2000FA331B785A1E9341DBB203933A2302E044
:101E30000222392303928D490020021C0B7105F008
:101E40004FF823680299F9331970012700E0002741
:101E500004F046FF051C04F059FF032E02D0002DAC
:101E600003D107E00127002D36D0002004F040FF09
:101E7000012731E02368F8331D88002D2CD1012E75
:101E800002D0022E04D00EE0301C05F05FF80AE00C
:101E9000281C05F05BF82368FB331B78002B02D06D
:101EA000281C05F05FF805F04BF82368051CFA3391
:101EB0001B78834210D0002803D001221123039203
:101EC00001E01223039069490020021C0B7105F008
:101ED00007F82368FA331D7007F0A6F9039B9842B0
:101EE00000D1A3E007F0A0F907F0F2F8051C039871
:101EF00007F0EEF8061C07F097F90399022900D1C4
:101F000001275A4AF32300201371111C021C04F00C
:101F1000E7FF039807F082F907F04CF9544B534957
:101F20001B681B7D002B65D0012F63D0EB786946C1
:101F30009B069B0E0B76AB7809ACDB06DB0E4B7673
:101F40006B780AAA5B075B0F8B76EB7A0BAF9B066D
:101F50009B0E0B77AB7ADB06DB0E4B776B7A08AD0B
:101F60005B075B0F8B77F37829219B069B0E2B7009
:101F7000B3786944DB06DB0E6B707378281C5B0753
:101F80005B0FAB70F37A9B069B0E2370B37ADB0674
:101F9000DB0E6370737A5B075B0FA370F37C1370C7
:101FA000337D2A220B70737D6A441370B37D042144
:101FB0003B70F37D7B70337EBB7003F04FFA201CC7
:101FC000002103F04BFA0AA8072103F047FA381C56
:101FD000032103F043FA059906AA07AB049800957C
:101FE000019405F0CBF9002002F058FF0027FEF71E
:101FF000EFFB0DE023680024E0331C70201CF42369
:10200000221C0B7104F06CFF201C02F09BFF0127C7
:10201000002004F0A7FF144B00211B681A1CFB32A0
:102020001170144AFC33126802321A6007F0FCF88F
:1020300007F062F80378002B09D004F08DFF0A4BFB
:102040001B68FB331A78824201D01870012704F014
:1020500075FE041C05F0D0FB0379A34200D0047187
:10206000381C0DB0F0BDC04600000020E703002082
:10207000880C00208C0C0020F7B5041C0F1C05F008
:1020800051F86E4600230736337003794225FF3539
:10209000002B01D001236355635D002B09D0A023E1
:1020A0003A1CA2275B007F00E018311CE31906F000
:1020B000C9FF3378002B05D1A0235B00E35C082B1C
:1020C00007D101E0192B04D0A02200235200A35411
:1020D0006355F7BDF0B5564D87B02B6802921A1CB8
:1020E0000391C5321278071C002A45D01A1CFA3217
:1020F0001278002A40D11A1CE032117800293BD115
:10210000C4331E78002E37D10123137002F0BCF9BE
:10211000041C02F0ADF9E37804AA9B069B0E137031
:10212000A378E17ADB06DB0E5370637889065B07E0
:102130005B0F9370890E05AB1970A17AC906C90EA1
:102140005970617A041C49073934490F9970381C59
:1021500003990094019405F011F902F06BFE201C24
:10216000042103F07BF9201C311C03F077F90220D5
:1021700002F06CFEFEF72CFB2B681A1CE032127882
:10218000002A51D01A1C2B4E0020C4321070326825
:102190000390126A011C013A0FD30E275743029C89
:1021A000BC46A4446446A788002FF4D03FB2013156
:1021B000B842F0DA381C0392EDE71A1CFA321278B2
:1021C000002A14D1012912DD05F016FB01239830F5
:1021D000036033681B6A013B0BD3039FBB42FAD0F9
:1021E0000E225A43029C0021A2189180F3E7002995
:1021F00004D02B680022E8331A6008E01A1CE83289
:10220000E43311681B68994201DC013111602B68CD
:10221000191C1A1CE831E43209681268914205DD84
:10222000C43301221A7001E0E8331A6007B0F0BD30
:102230000000002014030020F0B591B002AFF86058
:10224000A448B960036869461C689E68A51CAA1961
:102250005200131C0833DB08DB007600C91A7543F3
:102260008D4602A8002107F045F86B467B600134DB
:102270002B1C760866430833DB08974CDB006A4664
:10228000D01A85460136206802A976008E19B961F8
:102290003C22002138303E6107F02CF82A1C002136
:1022A000B86907F027F8FEF70DFE21680426081C20
:1022B000DC30DE31FEF7ACFA864A884D1368291C03
:1022C0005B6802206B705B232B712368EE709A6948
:1022D00004F006FE7F48291C036802201B69EE708B
:1022E0006B706C232B71236800251A6A04F0F8FDCB
:1022F00023687B491A1CDC321288DE33FA621B88A1
:102300003A1C3B630C2001232C320B717D6304F0DB
:10231000E7FD704924220B6825211868D0555A68BA
:102320002620CA559A68591DC255C97F1B692720A6
:10233000C1552821CB552923DE55236801325B691D
:1023400092009A18391C0092022024312A1C2B1C5E
:1023500004F08CFDF868B968BA693B69FEF702FCC5
:10236000061EAE4200D092E05A4A694614683960AF
:10237000E36A1A01131C0833C81A854602AD311CE2
:10238000281C06F0B7FFE26A281C396DFEF7F0FC46
:10239000504968460B68311C9A6A0E235A43131C35
:1023A0000833DB08DB00C01A854602AC201C06F0AF
:1023B000A1FF7B6D3A6D281C211CFEF715FDF86D01
:1023C000211CFFF759FEB86DFEF7E2FD454B1B6877
:1023D0001B7D002B04D1F868B968221CFFF77AFE38
:1023E000201C396D00F06AFF201C396D00F0E2FD01
:1023F00006F0BEFC83000733DB08DB006946C91A20
:10240000344B8D461D6802AAAB6A7A61FB610E22CD
:10241000013B5343E41838610434B861FB69013B64
:10242000FB610FD30020235E002B09DDB9697A69B7
:1024300001398800B9611018211D042206F018FF27
:102440000E3CEBE729682C20C1556B682D22D35533
:10245000AB682E20C3550535EA7F2F21CA553020A1
:102460000022C2557E2252423121CA551A490133F7
:1024700009685B00496B3869CB180093391CC2B2FC
:102480002C3103207B6904F0F1FC39688D467A68B1
:10249000954602F051FB02F0CDFC02F0CBF9012091
:1024A00002F0FCFC02F08AFA0B4BC8221B68F868A9
:1024B0009A56B968FFF774FC002800D1301C0A4B0B
:1024C0001A680A4B9A4202D002F062FEFEE7BD464D
:1024D0000FB0F0BD14030020000000201801002000
:1024E0001F010020880C0020C00C0020CDCDCDCDD8
:1024F000F0B55B4CE3B004AF23687A600A229A62BD
:102500001022DA62B960122259681A631A680E1C26
:1025100056431B693861F01880008A180A30D318B6
:10252000C008C0006D469B002D1A0A33AD46DB087B
:10253000DB006846C01A04ADFD6185469500FD606C
:1025400004ADBD6105F05EF9236868469C6A002110
:10255000E200131CA4000833C01A231C0833DB0854
:10256000DB00854604ADC01A85463D62386A04AD7D
:102570007D6106F0BFFE221C0021786906F0BAFEDC
:10258000384D00242B686846FF335C71364BB6002B
:102590001B682D331A785200131C0833DB08DB004C
:1025A000C01A854604A97962081C211C06F0A2FE07
:1025B00004F0ACFDFA6941789619201C331CFEF733
:1025C000E3F9BB683869834201D004F0BFFB2B6894
:1025D000A6229C603C1C2C3400215200201C06F0DA
:1025E00089FEB821BA69FB684900CC51D51804F0BE
:1025F000BFFC041C02F024FAA04204D0201C02F00C
:1026000024FA022424E0386A3B1C009079692C33B8
:1026100001917A6A03930292311CBA692B1CF86902
:10262000FFF70AFE0F4B114A1B68041C9968914280
:1026300002D09A6801329A60002809D104F05EFB4A
:102640007B68984204D104F043FB39698842CED0BC
:10265000386AFEF722FC201CBD465FB0F0BDC046C4
:102660001403002000000020880C0020FFFFFF7FE3
:10267000184BF0B51B6885B01E689B68B41C5B00E6
:102680005C4300AF221C5B08FB600832124BD2088F
:10269000B86079601868D2006946891A8D463C2274
:1026A0000021383006F026FE221C6846002106F084
:1026B00021FEFA68731C534301336D465B006A4682
:1026C000EB18B8687968FEF74DFABD46C0B205B0A0
:1026D000F0BDC0461403002000000020F0B5BA4E43
:1026E000E5B000AF33687A60022200249A62B961D3
:1026F00007222E211A63CC551A68596805254A43CA
:10270000DD621B697A62D3189B000A33DB08DB00A9
:102710006A46D21A954669467961B86001F0C6FEEC
:1027200005F070F8381C211C1022403006F0E2FD44
:1027300033683C639A695B697C6353439B000A334B
:10274000DB08DB006A46D21A95463B1C69465033CB
:102750003961BB6304F0DAFC041C092003F010FDAE
:102760007A6A79699300CB18FB6061787A69281CD2
:10277000FEF70AF903F0E6FA944C386923685969C0
:10278000FEF74EF9BA69BB689A4201D004F0DEFA4E
:102790008F490020A223021C0B7104F0A1FB2268C8
:1027A000002393607B62BB6104F0E2FB041C02F037
:1027B00047F9A04204D0201C02F047F90224F9E0B6
:1027C000796A002979D16B463B627F4B1B689A6915
:1027D00051005A6901324A43131C0833DB08DB00FD
:1027E0006946C91A8D466846796A06F083FD2E222D
:1027F000D35D764E082B0AD103F0A4FA336838690A
:102800005969FEF70DF9796A2E23D95551E0042054
:1028100002F044FB3368684659693A6904F0A8FE3F
:10282000061E012E11D1092003F0AAFC052002F09A
:1028300035FB7B6A786A2E226549D355A323021C97
:102840000B7104F04DFB7E6233E0624E69463368E3
:10285000386933331A7804F04FFF3368B96933337A
:102860001B785B0099420CDD092003F089FC7A6932
:1028700005200121FB68FEF787F803F063FA7A6A06
:10288000BA61BB69534D0133BB612B683233187891
:1028900002F0DBF802F0F0F82B683333187801F01F
:1028A0007FFF002001F09CFF201C02F0CEF802F018
:1028B00005F9396A00248D4666E0464B1B683433BF
:1028C0001878424B1B68186001F06AFF052002F07F
:1028D000BDFA7869F968FFF7CBFE0122041C7A6221
:1028E00052D1394D69462E68F961F36A1A01131CF9
:1028F0000833C91A8D463962081C211C06F0FAFCFF
:10290000391CF26A386A4031FEF732FA2B686946A0
:102910009A6A0E235A43131C0833DB08DB00C91ADA
:102920008D466846211C06F0E5FC3A1C3B1C386AC3
:10293000694640323033FEF757FA2F22381C3B1CD1
:10294000D1193833D4552E306A4606F07BFB02F09D
:1029500071FA2F21CB5D002B06D12E22D35D082BDF
:1029600002D002F0E9F80DE0012001F00DFF184956
:102970000020A223021C0B7104F0B2FA03F0E2F96A
:1029800000237B62F9698D46104B134A1B689968D6
:10299000914202D09A6801329A60002C0AD104F068
:1029A000ADF97A68904205D104F092F9BB6898427B
:1029B00000D1F9E602F03EFA042003F0E1FB201C0E
:1029C000BD4665B0F0BDC0461403002000000020E5
:1029D000E7030020880C0020FFFFFF7F704770474F
:1029E00070477047F0B5D74BA1B01C6800AF786551
:1029F0000D1C606821686B4641430A18500008307E
:102A0000C008C0001B1A920066689D46FB62131C3A
:102A100076000A33FE65DB084E0089006068396481
:102A2000DB006946C91A8D4680006B463865002177
:102A300068467B6406F05EFC6368226898005A432F
:102A40009100D2189200131C0A33DB08F863DB00F4
:102A50006846C01A85466B463963FF21FB6406F061
:102A600049FC60682368B8635843B96B6A464318E9
:102A70000733DB08DB00D21A95466B467B637B6D20
:102A8000B862013B162B17D801229A40131CAE4A9C
:102A9000134209D1AD4A13420ED0BD65002D0BD1B2
:102AA000AB4B1B682F3305E0BD65002D04D1A84B4F
:102AB0001B6831331B78BB65386DF96DBB6D8008C1
:102AC0004908FA6B013B786239623B65786C396C76
:102AD000FB6A92084018FA6172089E19F8637E61D9
:102AE000386BFE6CBA6136183E633E6D013600D11C
:102AF000CAE07E6D02239E43012E04D07B6D113B04
:102B0000012B00D9BCE0002002F0C8F98D4B914A9E
:102B10001D6816682B68BC6E7B663B643B6C013B92
:102B2000FB656BD36C68013C611C64D0AB68386C8E
:102B300071694343E31801337A6D9B005B58032AA4
:102B400029D002DC012A04D0EDE77A6D113A012A7E
:102B5000E9D8B069A2001258F96D9B1ADA43D2176E
:102B600013407A6A786C4A43A21892001058796C24
:102B70003861181850503A6D002AD4D1F96D3B6A6B
:102B80004B43E3185B00B96DBB64FDF763FABA6CA5
:102B9000FB6AD052C7E7F86D7A6A4243786CA11895
:102BA00089000958B964994200D2BB64B86C796C49
:102BB000A21892005050FA6DF969F86C51436218EE
:102BC0009200796011588C46994200D99C467A68E7
:102BD000FB6CA01861468000C150BB6C5A1A7F2361
:102BE000FD2A01D85208D3B2786BBA6B0119F86D7F
:102BF00042438B5497E7FA6D3A648FE7FE6D554B6D
:102C00007E662E69BC661D68741EA400013E37D323
:102C1000E9697A6D0859012A02D0032A15D02DE0FE
:102C2000296AFA6B0B591259C01AC343DB171840B3
:102C3000396DFB6B8018185100291FD1B96DFDF754
:102C400009FA7A697300D05218E0FB6B1A59031E17
:102C5000934200D2131CF96B0B51396B0A59904205
:102C600000D9101C3A6B1051181A7F22FD2801D888
:102C70004008C2B2786BB96A43189A55043CC5E75C
:102C80003E6D013E3E6530E72E4BFE6A1B683E6599
:102C90005E681D68BE651E690533DB7F6C203B6482
:102CA0000523C3552C4B6D211B686E205A790024D7
:102CB000CA559A796F21C2555A7A786DCA559B7A4E
:102CC0007022D3557123DC55122811DC112829DA22
:102CD00001281FD0032800D08FE07A6B7023FC6698
:102CE0003A65DC5300F000F9B86D0123F86587E020
:102CF000796D132900D080E0BA693B6D51005918F5
:102D0000181C03F0FDFBB96D7020FC66F965C45317
:102D10003C6474E07022FC66D453FFF760FEBB6D28
:102D2000FB656CE07E6D112E18D1BE6DFD64013E19
:102D3000FE657E633E1C6836BE620126BC63FE6390
:102D400017E0C04614030020040040000100030007
:102D5000880C002000000020980C00206E1EFE64ED
:102D60007E63BE6DFC63FE653E1C6436BE6201265A
:102D7000BE637D667E6E741E7C66002E30D0BE6D96
:102D8000BE66BA6E531EBB66002AF3D0BE6B3D6AA8
:102D9000A2197E6A65437243FE6BB86AF1188A18FD
:102DA0007E6C920091597A6A006862439A18920088
:102DB00092597E6B5D196D00B0420DDAFA208B1AC4
:102DC0008000891858434910002900DC0121FDF7D3
:102DD0008FF9FE6AA853D4E7FE6A0023AB53D0E70D
:102DE000796D7020FE66C653112902D1FFF7F8FDF8
:102DF00001E0FFF7F6FDFD6C01E0BA6DFA65022314
:102E0000FA6D7521CA557420B96DC5557620C15526
:102E1000386C7821CE5577227926D055F25D7F2106
:102E20008A431343802252421343F0190370391C22
:102E3000381C06226C317A3006F01AFA381C7430CD
:102E4000396D03F09DFFBD4621B0F0BD08B501F01E
:102E500085FA03F099FE08BD0C4B10B51B689A6B00
:102E6000002A03DD196C5218D10F0BE000218A42B1
:102E700008D1074909681424085F1C6C01218442A9
:102E800000DB111C8033197010BDC046000000200B
:102E90008C0C002010B504F099FC124B1B68996B48
:102EA0001A1CFF32002915DD041CE8342488A142D5
:102EB00010DA6424E630614300881C6C6043C14230
:102EC00008D5191CFA310978002901D1012100E047
:102ED000002151715279002A02D0803300221A70E9
:102EE00010BDC046000000207047000008B501F08A
:102EF0003BFB01F0DFFF01F069FB01F001FB104B30
:102F00001B681A7A0F4B1B688833002A01D00022F5
:102F100000E001221A60A023DB059A8B0C218A4372
:102F20009A83998B032291439983D97F9143D977CF
:102F300062B601F06BFB02F0A1FE03F0D7FA08BD08
:102F4000980C00201001002038B5041CFDF7A0FAF1
:102F5000051C04F03BFC291CFF314B79002B24D0CD
:102F6000124B00221B68DB6A013B07D318012018B3
:102F70000825405F0028F7D10122F5E70C4B1B68BC
:102F8000986B002811D11D6C002D0ED1FC33002A46
:102F90000AD0DA68FE2A01DC0132DA60DB68052B30
:102FA00003DD00234B7100E0DA6038BD140300201C
:102FB00000000020F0B5BC4B8FB01B6807909E68E6
:102FC0009F690696DE68089105961E6904965E69FB
:102FD000039603F0F7FEB54B01261B68F8331B7808
:102FE0000296002B58D00026089D079C0296B04BF5
:102FF0001B681B6A9E424FDA2B880BA803806B88E4
:10300000438005F037FE0420235E002B40DD23883B
:1030100069460B8563880AA84B8505F02BFE684638
:103020002823C35E069999420BDA059A9A4208DD75
:1030300068462A22825E0499914202DA03989042FD
:1030400021DC04216A5E002A1ADD9A4A126892196C
:103050002832127852B2012A12DD0698C21B9A4217
:103060000EDA0599CA199A420ADD6A462A23D35E06
:103070000498C21B9A4203DA0399CA199A4205DCE2
:103080000023A38004E00122029201E001230293C5
:10309000013608350E34AAE70126079D089C0396E1
:1030A000834B039E1B68013E186A0596864200DB2F
:1030B000AFE023880BAE33806388301C738005F04B
:1030C000D9FD04202B5E002B00DC7BE02B886946B9
:1030D0000B856B880AA84B8505F0CCFD6B46598D96
:1030E00076881F8D734B32B204961B68059E08B21A
:1030F00084469B19801A6033069207901A796E4BAA
:103100001B68002A01D14C3300E04D330420225EBD
:103110001B78002A05DD079EF017321842409A42BC
:103120006FDB029E002E6CD00CAB1A7880204042E0
:10313000039E10430F22164008965E78C0B290435B
:103140009643099601903FB2604606123F120998D5
:1031500017400743174036013E43F6B2CFB20996F7
:103160000899019EDF703143069E402066450CDDC4
:10317000814360461970311A099E09121140964325
:10318000314359700499CF1B0AE0079E014319701F
:103190003112099E114096430498314359703F1AE9
:1031A0000CA89F7003F018FE424B059E1B6804217B
:1031B000625E9B196033002A01DD012200E00022DB
:1031C0001A7118E00420235E002B1ADD0CA80023DE
:1031D000039A43600F231A4002700127F757728841
:1031E0003188F6783B4076B236011E4346708170D6
:1031F000C27003F0F1FD2B8823806B886380EB881D
:10320000E380039EAB880136A38003960E35083415
:1032100046E71B690F255C1E1D40264E631C2BD004
:1032200031686700CB191A1C78320020125E6E33A9
:10323000002A0BDC00215B5E002B12DD00230CA8B2
:103240000C93436080232B43037008E000229B5EB5
:10325000002B06DC0CA800230C934360057003F0E0
:10326000BBFD3368013CDF193B1C6E373A8878336D
:103270001A80013D0F23CFE7336801201A1C9832D2
:1032800011680832002902D11068441EA0411C1C9C
:103290008E3420701268181C9C30A43301601A60B0
:1032A00003F0AEFD0FB0F0BDB40C00200000002014
:1032B000140300201C030020B00C002070B5124B3A
:1032C000051C1B680C1CEA331B78002B1BD00F4A13
:1032D0001368161C191C9C310968002905DDA433EC
:1032E0001B68002B01D105F0FDF933681A1CA432CC
:1032F0001268002A07DD9C331B68002B03D1281CB1
:10330000211C05F0C5F970BDB40C00201C03002081
:10331000F0B591B00E91089003F004FFB84B012175
:103320001B680E201A1C5A321278089C91401A1CF5
:103330005B3212785C33891A1A7800258B1ADBB25B
:103340000F93B04B09951B680A950B93A8330D9307
:10335000AD4B1B681A6A5043111C23180E3B0139F0
:103360000BD3DC88099EA64200DA09940427DC5FAF
:103370000A9DA542F2DA0A94F0E7089E013A301855
:10338000083807920590079F013700D1ADE0059FEF
:10339000023F00203B5E0697002B00D19EE0984E36
:1033A000059C336820881A1C4E321969157824331D
:1033B0003A3A03F081FE041CFDF76AF833681A1CE0
:1033C0004F321278002A01D1642245E02A1C0B9D5D
:1033D0005D35FF35287800281CD1069F6421002622
:1033E000BE5F171C714367438C460B995531FF3103
:1033F000BC450DDDA6420BDC844F0E683F680136EC
:103400000E60DA373F78BE4204D101262E7000E00C
:10341000002008600B985D30FF300178002915D03E
:10342000069E0B990025755F5531FF31A5420BDDD6
:103430000D681E1C01350D603E363678B54205D14B
:10344000002505700D6001E0002008600B995D31DA
:10345000FF3109780029B7D06A49079F0968069D9E
:10346000C819283006780020285E002E05D01D1CC3
:103470003E352D7876B2AE421ADC6425454354437E
:10348000A5420FDB1A1C44321278099F059E7A432D
:1034900034889211944205DB9B6C0A9C63439B1118
:1034A00098421BDA059D069E00232B8033800CE09A
:1034B00034331B78564D5C436843624390420DDAC7
:1034C000059F069C00233B802380079A0E329200C2
:1034D0008A18983153600B68013B0B60079D059E6D
:1034E000013D0E3E079505964DE7464B00221B68B1
:1034F0000E9D98331A60444B1B681B6A5C1E059432
:10350000059EE2000E247443AF18089D0C227243FE
:103510002C193F330B9D0D9E5B00EB18B218AA339C
:1035200007920993059E374D013600D100E204262B
:10353000A35F334A002B00D1BBE1059E2D681268C2
:10354000A9190B1C283318783E320130C0B218700C
:10355000127840B2961DB04201DD04321A70282361
:10356000CB56012B05D123883B8063887B80E38881
:10357000FB80059EAB1928269E57012E00DC80E1BA
:10358000B01C0321FCF70AFE0A91022E42D11E4B09
:1035900000203A5E1E6802217B5E69692D693068F1
:1035A0006D10551B76688C46E917013E6D18360282
:1035B0004D40761B7F2E0ADD65466910591ACE17DD
:1035C0000138891900027140401A7F280DDC002162
:1035D000605E801A0222A15EC91A04F02DFD0B283C
:1035E00003D93B8823807B8863800323013B19D365
:1035F0002188079D5A00A9526188AA18D180F5E751
:10360000B00C00201C03002014030020B40C002088
:10361000102700000A9E079D3A887300EB181A8055
:103620007A88DA80D34B059E1B680221655E9B1960
:1036300028331B780020265E5BB20893032B00DC46
:1036400015E10A9A07985300C3181988101C0D91A8
:10365000043003210693FCF7A1FD079A4B00D31811
:103660001888DB88069A0E93089B8446D188042B21
:1036700008D10022B85E301AC317C018584002267D
:10368000BB5F09E0099B0020185E301AC61780193D
:103690007040099E1423F35EED1AEA17AD185540E9
:1036A00023884019099D059E2B806388B24AAB820E
:1036B0000B9DAB192133FF331D78002D06D0156803
:1036C00062352D88A84208DC002505E015686435C0
:1036D0002D88A84201DB01251D701B78002B2BD102
:1036E00012688021131C603212885E331B8800929E
:1036F0004A0003F0CDFC069D061C0020215E002040
:10370000285E0B1ADD175A19069B6A40944602225E
:10371000A55E06229A5EAD1AEA17AD1855406544BB
:10372000321C2B1C05F02CFB069B20800222A15E84
:103730000620185E321C78E00D9E6046B5B22B1A4A
:103740001BB2DA0FD3180E9A89B25B100D938B1A45
:103750001BB2DE0FF3180020265E5B1008960220D5
:10376000265E0E930C960D9EAB19089D1BB2EB1AAC
:10377000DE170E9D9B19734049190C9E09B2711AF0
:10378000C817091841405B180025802B01DD1D1C5E
:10379000803D0A9803210530FCF700FD079E764B1B
:1037A00049001B687118039106991A1C0020085ED5
:1037B0005B320F99167801321278414303980A92CE
:1037C0000022825E0898724389180A9A4243881838
:1037D0001A1C5A3212780699104104900620095E8C
:1037E0000F985D334843844603981B780621415E59
:1037F0000C984E430A996644414376180E99164137
:103800005943114176180D994B4313411A1C049BDF
:10381000089998188022D2002B1C05F0B1FA80225A
:103820002080D2000220215E301C2B1C05F0A8FA5B
:10383000514D60802B680421785E0422A15E043320
:103840003E269A5F431ADE179B19734005F098FADB
:103850002B68A080F888E18804333E255A5F431A1C
:10386000DE179B19734005F08BFAE08009E0002019
:103870003B5EF6187610268002217B5EED186D10F7
:1038800065803C4B3C491A68059D096853192820FE
:103890003E3118560978884203DC01225242A28048
:1038A00003E09832116801311160303300229A70C0
:1038B00032E02E680599126870180692021C2832B0
:1038C00000269657B446069E3E363678B4451CDD33
:1038D0000426B95F00291FD0303086780136F6B251
:1038E0008670069976B23F3109788E4213DC3B88A8
:1038F00023807B886380BB88A380FB88E3802B6860
:1039000098331A6801321A6006E00B9D059E137009
:10391000AA192132FF321370059D079E013D0595BE
:10392000099D0C3E023D083F0E3C07960995F9E5BE
:103930002B680022A0331A60104B1B681C69013CE5
:10394000611C00D197E0286862008218161C6E3650
:10395000378805970599084F002918D07823995E74
:103960008C4605990BB26146002909DC39683C3167
:1039700008E0C0461C030020B00C00201403002007
:1039800039683D3109788B4201DA00233380318870
:103990000319079300293FD0803305939878844614
:1039A0007F2804D001239C44059863468370079BBD
:1039B00080339B785BB2022B13DD78320023D05E1C
:1039C0003A6809B294460422944463463E229B5EC0
:1039D0000593431ADA179B185340059A05F0D0F95E
:1039E00030802B6802201A19111C80310856396862
:1039F00040310978884207DC211C343149005B18CA
:103A000001214942D98003E0A033196801311960CE
:103A100080320023D37192E73F68079B069780337B
:103A20000227DF5705974027BC46069FBC446746E0
:103A30003F78BC46059F674518DD78321288002A1A
:103A400000D17CE7DF79BC460127BC446746FFB262
:103A5000DF717FB2BC46069F41373F78BC4508DC2A
:103A60003280A03003680133036068E728680319D7
:103A70008033997063E711B0F0BDC04638B50D1CB6
:103A8000041C00F06DFC03F039F9291C201CFFF721
:103A90003FFC38BDF0B58FB0059007910A920B93AB
:103AA0000024404B1B68DB6A9C4278DA059F2301A7
:103AB000FB1808201B5E002B6FD0079FA300FB188C
:103AC0000327DF5708979B78013F5BB20693049763
:103AD000089F049801370997B8425EDC069E013EB4
:103AE000069B01339E4255DC2E4B04991B68013125
:103AF0009A680A9F5143481C80193D5C013D47D399
:103B0000DB6A9D4244DAAC4242D0079FA300DB5FF0
:103B1000254F40003F683F89BC46149FC05B8342ED
:103B200036DC069F6046C91943430131149F4900A2
:103B3000C95B9B118B422BDA099F7A43B218013281
:103B4000149F5200D25B934222DAA54202DB2B1C67
:103B5000251C1C1C059821010DAF41180A31381C89
:103B6000042205F085FB059A29015118381C0A31F9
:103B700003F0FAFE00970A9F231C01970B9F0598FC
:103B80000297149F079903972A1C03F00BFF2C1C24
:103B90000236A5E7049F023799E7013481E70FB0A9
:103BA000F0BDC04614030020B00C0020F0B585B075
:103BB0000C1C151C01930390FCF758FCFCF762FCED
:103BC00000F056FC384E3949336802201B692A1C24
:103BD0004B700423CB705A230B7103F081F9231C23
:103BE0002A3300221A7080231B066363304BA363C1
:103BF00033681A692F4B19682F4B1B6802932F4BA0
:103C000018688446013A43D3019F9600BF59A859CA
:103C1000C31B676B9F4200DA6363A76B9F4200DDA3
:103C2000A3630B78002B06D0029FBB183133FF3300
:103C30001B78584380110A9FBB591B0C1B1A11D4C7
:103C4000487B834202DB0120664630710F20085614
:103C5000834212DB2768181A381820606069013027
:103C600060610AE011200856834206DCA668181A33
:103C70003018A060A0690130A061039F50003B5242
:103C8000201C2A300678B34200DA331C0370B9E7EF
:103C9000084B2A341B6822781B7A00209A42404144
:103CA000C0B205B0F0BDC0461403002018010020CA
:103CB000FFFFFF7FA40C0020A80C002018030020A9
:103CC000F0B595B013930C1C0C921290FCF7CEFB40
:103CD000FCF7D8FB964B1B68FF335B79002B06D1B2
:103CE000944B1B681D7A0A950A27DE5F05E0924B0C
:103CF0001B689D780A950427DE5F904D90492B68DC
:103D00000C9F5A6818684A709A6804238A700132B6
:103D100092000870CB70BA18512302200B710996DB
:103D200003F0DEF80023A21D8248D3770232D37756
:103D30007F262968621D05688248D677E21DD677FE
:103D400000684A680F908048013AD2B200680E922B
:103D50000A6810907D4E8020013A000652B2AC46AF
:103D60000896079006930493002A00DAA3E00E9FBA
:103D700050007BB20B90002B00DA9AE08E68551C45
:103D800075430135ED18A8000C9F0195139D9E0009
:103D9000C059AE59079F861BB74200DA0796089DA7
:103DA000B54200DD0896664637784E68002F09D088
:103DB000351C55430F9FFF187F5D109D7843AD68FC
:103DC0006843001356431A9F9E19B600F659129F76
:103DD000360C301A019E7500E8536646002854DB05
:103DE0000F257557A84212DB2768451B7D192560F2
:103DF0006569102701356561F757F67B656876B20E
:103E0000B84201DC861B00E0BE1BAE196660E568A7
:103E1000A84204DDDEB2D7B211960D97E060664687
:103E2000357BA8421BDB251C08351F26AE579E425A
:103E300000DAEB77E51D1F26AE579E4200DDEB77DB
:103E4000A51D1F26AE57964200DAEA77651D1F268C
:103E5000AE57964200DDEA77069F0137069785B296
:103E60001C9F5E000295BD5B029F7D192F1C1C9D4F
:103E7000AF531B9D0B9EAF5B029EF5191B9F0B9EC4
:103E8000BD53049F3F18049711E011257557A842B0
:103E900006DCA768451B7D19A560A5690135A561EC
:103EA0002569A84200DA2061049E361A0496013B77
:103EB00061E7013A58E7214B04981B680125D9684E
:103EC000FCF716F922497C235B42221CCB70E0618F
:103ED00076231C32281C0B714D7003F001F8069FED
:103EE000A21D27621F21631D51561F229A56164B91
:103EF0001B68914201DB1D7101E000221A71079DD0
:103F0000089EE562119F231C0D9D283326631F70B8
:103F10005D70E6680A9F0120BE4205DA2369099DAB
:103F2000D80FEA179D425041C0B215B0F0BDC0464F
:103F300000000020A40C0020AC0C00201403002082
:103F4000E0030020A80C002018030020FFFFFF7FE3
:103F50001801002007B5104B2A301B680278987CA6
:103F60000968424392098A4200DA0A1C997B4A4353
:103F7000921101921B7B9A4200DA019307490123B7
:103F80004B707C235B42CB7006201F2301AA0B7170
:103F900002F0A6FF01980EBDA40C0020180100201D
:103FA000F0B591B0099316AB1B78BE4C0F9300236C
:103FB0004B72CB720C907F2320680B728B72069130
:103FC0000A920323C3562027FF1A0223C3560999D6
:103FD0007F00FF1A49687F10FFB2059107970422FE
:103FE000815E0623C25E0823C356407A40B2009029
:103FF000059803F04DF8AC4B80021D682968FCF76A
:1040000077F824686A682378002B00D16EE0189D49
:10401000911CEB8849006B802B892E1C2B800B1F79
:10402000EB181D887552991E0988D980617800297E
:1040300003D0079D6FB27F0039E0023B013A39D3CC
:104040005E88DD88032161567519079E4D431F88E0
:1040500071B21E89BE194E430221AD1961569E8868
:10406000714369188911414309141981E5E7032552
:1040700065575988DE886D00AC460D1CB14200D2F0
:10408000351CADB266466E431D89B4461E88311C90
:10409000AE4200D2291C0225655789B29E88794319
:1040A000754361444D19AD1145432D141D81023BEB
:1040B000013ADCD2099F0B207F6804972056042226
:1040C000A15E0623E25E0A23E3560090381C02F04C
:1040D000DFFF754B80021C686168FCF709F8714BC3
:1040E00021681B681A78002A0CD164E0531C189FC1
:1040F0005B00FB18013ADDD31988023B41430914E8
:10410000D980F7E7179CE288251C62802289261C4B
:1041100022808C1C6400221FAA1815883553941E17
:104120002488D4805C78002C03D0079C67B27F0081
:1041300039E0023A013939D35688D58803241C570F
:104140007519079E6543178874B21689BE196643B0
:104150000224AD191C57968874432C19A4114443AA
:1041600024141481E5E703255D575488D6886D0033
:10417000AC46251CB44200D2351CADB264466C433B
:1041800016881589A446341CAE4200D22C1C022588
:104190005D57A4B296887C43754364446519AD119C
:1041A00045432D141581023A0139DCD21A7B002ACD
:1041B0000DD1079222E04A1C179D5200AA1801391E
:1041C000F4D31488023A44432414D480F7E7099EB8
:1041D0000E27D95F70680024079488420EDD1025F1
:1041E0005A5F9B7C01265BB20093231C02F050FFB8
:1041F00010231B1A9B000B900D9307962A4B00214E
:10420000186809910768BC4666464368711E00D26B
:104210008AE0179C4A00A2180E92013B00D281E06E
:10422000079D8468002D41D0664666430896F618BF
:104230000A9F01367600BD5B5F1C2AB2D243D217BB
:104240002A408D1C654302967D190A9E6D00AE5F63
:1042500012B20396964200DA0392089E341B3C1970
:104260000A9F6400E45F944200DA141C039E0A9FD4
:104270003519029C3E190224375F141EBC4200DA35
:104280003C1C023E2D190027F45F161EA64200DAE0
:10429000261CAD190B9C0D9E65437243AA18921102
:1042A0000BE0C046B80C00201403002067467C4396
:1042B0001C1901340A9D6400625F189E5C00341969
:1042C00024890E9F121B3C89121B0F9CA24218DDF1
:1042D000069D0B242C579C4200DAEB72069E0A24A2
:1042E00034579C4200DDB372069F09243C578C4230
:1042F00000DA7972069D08242C578C4203DD29725E
:1043000001E0002A04DD099E964202DA099200E0EB
:104310000022846867467C431C1901340C9DA4006C
:1043200062517AE78C466FE70B498268099F069CC9
:10433000056827600C9E4B708A707C2301325B42BB
:104340009200CB70B218832305200D700B7102F020
:10435000C7FD11B0F0BDC046E0030020704700006B
:10436000F0B58BB0041CFCF793F803F02FFA03F0C0
:1043700043FA3A4B0E201B68196A8C4601394843B0
:104380000901201800916346013B9C4664D3042335
:10439000C25E334B002A58D0009C1B191A68022AAF
:1043A00001DC01321A60DA881A819A89DA819A88E6
:1043B000DA805A899A8102889A8042885A811A68DA
:1043C000032A44D1013A0ED355005D199400042705
:1043D000EE5F211C102464186F46E6510A242E5FFC
:1043E00007AD4E51EEE700231C1C0134029400255A
:1043F00010266F46F618F65904AFDA1952195168AB
:10440000039601918E4205DD1026F6186F46F15194
:104410000399516007AA9E5801969E1876197768ED
:1044200001990397B94201DD9F507160029E0435E6
:10443000012E02D102270297DAE70433022CD4D1ED
:10444000059B03805368438001E000995A50009A0D
:104450000E38103A009296E70BB0F0BD140300201E
:1044600040030020014B18607047C046980C0020A4
:10447000014B18687047C046980C0020014B18602B
:104480007047C046940C0020014B18687047C04626
:10449000940C0020014B18607047C046900C00201F
:1044A000014B18687047C046900C0020014B1868FB
:1044B0007047C04610010020084B00201A78AA2A35
:1044C0000BD11A7801338018054AC0B29342F8D153
:1044D0001B78181A43425841C0B27047500002007E
:1044E0005F0002008023DB020022188059809A803E
:1044F000C046024B188880B27047C04606000400D0
:10450000154BC0229200985814490140995099586F
:10451000FF208143402001439950985810490140A1
:104520008020000401439950985880210002000A1D
:1045300009060143995002221A6001221A600821DB
:1045400004221A601960FC3300215960054B196977
:104550000A431A617047C04600E100E0FF00FFFF18
:10456000FFFF00FF00ED00E037B5154B1B681A6F29
:10457000DD6E72331C7801922407240FFFF79CFF35
:10458000002810D0062C01D10E4B05E0082C0AD1D2
:104590000D4B1A78002A01D01C7802E0094B1C78D8
:1045A00002340F231C4001AB99780F208143A022D5
:1045B000D2050C4355609C70019B936037BDC0468B
:1045C000940C0020580002005B00020030B50C4B38
:1045D00003221968A02375310C78DB059D8BA40894
:1045E000084814402840A402204398830978988BF7
:1045F00009090A401103044A02400A439A8330BD64
:10460000940C0020FFF3FFFFFFCFFFFFF7B52D4B0A
:104610000022111C187801330918D87B89B21218AE
:10462000294892B28342F5D11878FF23194000241B
:10463000814206D125491A400978541A63425C41E7
:10464000E4B200231F4907205A181578191C0540A9
:10465000A0220831D205890065438E580540864363
:10466000301C28431A4D885058190778251C0F20F4
:10467000054007406F4307403F0201978E58154F92
:1046800037403E1C019F3E43134F8E50DE19367853
:104690000640754328408E58050410483040284392
:1046A0000F4D8850581905781F2005406543284054
:1046B00005068E580B480133304028438850052B9F
:1046C000C0D1F7BD800002008F0002009F000200F1
:1046D00085000200FFF0FFFF8A000200FFFFF0FFED
:1046E00090000200FFFFFFE00002064B000A0138C5
:1046F000002258609A6005221A60C0461A68D103E9
:10470000FCD5704710E000E010B50A48A02300680F
:10471000DB05D969883000680322890801248440B8
:10472000114021430A4091009A8B0C2082430A4396
:104730009A8310BD1001002010B50A48A02300681C
:10474000DB05D96988300068032289080124844088
:104750001140A1430A4091009A8B0C2082430A43E6
:104760009A8310BD10010020A023DB05D869054BFA
:1047700000071B68800F88331B681841012318400D
:104780007047C04610010020044B82B0019001AA7E
:10479000188092789A7002B07047C0461800005096
:1047A00007B500F0DDFD074B019001AA1880927853
:1047B0009A70054B00221A70A0230122DB05DA76DD
:1047C00007BDC04618000050740C0020034B0022A7
:1047D0001A70A0230122DB05DA767047740C0020E2
:1047E00072B6084B1B5C002B03D1C04630BF62B6CB
:1047F000F6E762B6A023DB055968034A0A405A600F
:104800007047C046740C0020FFFFFFFC72B6074BD8
:104810001B5C002B02D1C04662B6F7E762B6A0234C
:10482000DB055968024A0A405A607047740C002040
:10483000FFFFFFFCA023DB05DA680121120ED86818
:104840009143034A090602400A43DA607047C046B2
:10485000FFFFFFFE73B51F230130002418406A4696
:10486000C9B2009410704A1C02311A40A0250B40B6
:104870006846ED059B004270C370281C69460822FB
:104880001030019404F0F4FC2B69C02293432B6197
:10489000074E9825ED002A1C211C301C04F02AFD2F
:1048A000FFF7C8FF301C2A1C211C04F023FD73BD38
:1048B00000400050704708B5A0230120DB05587068
:1048C000FFF78EFFFFF7B6FF08BD000010B5041E0E
:1048D000022C06D0052802D0002804D101E00024D3
:1048E00001E0FBF7D5FD0C4B64001B683F221C194F
:1048F000231C50331878A023DB05D968104091435E
:104900000143D96051342178D8680A401102034A22
:1049100002400A43DA6010BD10010020FFC0FFFF13
:10492000214BF7B51A68214B1B68DB7C5B069B0E9D
:104930000193D17C00238D005519581E5B18002B64
:1049400025D053181B181B7D8024D3185E78A02314
:10495000DB05DF68E4033C43DC60019CB60624040D
:104960000094DF68B60EBC46114F64462740009C99
:104970002743DF60C04620367600F65A84002C19A3
:104980006667DE680B4C3440DC60031CD5E7D37CE3
:10499000094974324B700423CB700F20B0230B7184
:1049A00002F09EFAF7BDC04610010020940C0020D2
:1049B000FFFFC0FFFFFFBFFF1801002008B5FFF792
:1049C000AFFF074B07491A680F20D37C74324B7036
:1049D0000423CB70B0230B7102F082FA08BDC046ED
:1049E0001001002018010020044B00225A70A0235F
:1049F000DB055A7001221A707047C046740C002003
:104A0000A023DB055968064A0A40802149040A436D
:104A10005A60044A0021917001229A707047C04682
:104A2000FFFFFFFC740C0020014B1B68D86E704721
:104A300010010020014B1B68D86670471001002050
:104A4000A023DB055868C0B2704730B5A023DB0552
:104A50005B68DBB283420ED001DA013300E0013B38
:104A6000A022D2055568FF211C1C8D430C40291C37
:104A700021435160EEE730BDA023DB055968802259
:104A8000D2040A435A605968094A0A405A60596870
:104A9000084A0A405A609A6801218A439A609A68D3
:104AA00080218A439A609968034A0A409A60704755
:104AB000FFFFF0FFFFFF0FFFFFFFEFFF38B51A4BBF
:104AC0000122196819480B1C6F331C78A023DB05E1
:104AD0005D68A4081440A4062840204358606E3145
:104AE0000C780F205D6804401148240428402043BE
:104AF000586008785C680F490009000521400143AF
:104B000059609968FA200A439A609A6880210A439A
:104B10009A609968802252030A439A60800000F0EC
:104B200043FCFFF7E1FD38BD940C0020FFFFFFFBC5
:104B3000FFFFF0FFFFFF0FFF08B50020FFF750FE5B
:104B400008BD0000034B1B689878C006800E01303A
:104B50007047C046940C0020024B1B6858784007F1
:104B6000400F7047940C0020004870470010005020
:104B70000048704700200050004870470040005037
:104B8000064B1B685879064B02301B6833331B7881
:104B90005843044B8000C0187047C046980C002052
:104BA0001001002004400050064B1B685879064B4A
:104BB00002301B683F331B785843044B8000C018F9
:104BC0007047C046980C002010010020044000509F
:104BD000064B1B685879064B02301B6843331B7821
:104BE0005843044B8000C0187047C046980C002002
:104BF0001001002004400050064A074B12681B6851
:104C000043325B791078023301305843034B800004
:104C1000C018704710010020980C0020044000507C
:104C2000064B1B685879064B02301B683F331B78D4
:104C30005843044B8000C0187047C046980C0020B1
:104C40001001002004400050074B1B68DA795879A6
:104C5000064B02301B68013237331B785843044B34
:104C600010188000C0187047980C00201001002018
:104C700000400050F0B56B4B89B01C6800AF237842
:104C80005AB2042A43D1684B69461A68B96153790C
:104C90009B000A33DB08DB00CD1AAD466846F8619D
:104CA0000223002B30D05179FE69881C58438D00B7
:104CB0007519013078613D610026701E76183860E4
:104CC000002E0FD03868661836187D69767E5748F2
:104CD000AE19B600361835683E683869B600855199
:104CE0003E68EAE7517901390CD35579481C023501
:104CF0005D4340194D4D8000FE6940198D00755986
:104D00000560F0E7013BCCE7B869854686E0002BFB
:104D10006DD0022A34D1FBF7BBFB434B1B68FB6110
:104D2000DC79002C63D06D467D61FFF78DFFA50017
:104D30002B1C0A33DB08061CDB006846C01A8546BC
:104D40006A463C61BA61013CA300F869FB60417AA4
:104D5000201CFBF723FA89008959BA69FB68D150F6
:104D6000002CF0D13B69521901339B005B4275194D
:104D7000043C9C4202D011592951F9E77D6935E084
:104D8000032A34D004229343012B30D16D46FD61B8
:104D9000FFF70AFF244B1B685B799E00311C0A3128
:104DA000C908C9006A1A9546351C7E616D44002603
:104DB000711EF618002E0CD0E21894468E008C441A
:104DC000BE616646767EB6003258BE69AA510E1C98
:104DD000EEE7796901339B0042185B42311C0439CC
:104DE000994202D06E585650F9E7FD69AD46104B16
:104DF0001B687A331B78002B10D00B4B1A68537941
:104E0000013B0BD35079947902306043591C091847
:104E1000064E8900891900200860F1E7BD4609B0F7
:104E2000F0BDC04610010020980C0020004000504A
:104E3000940C002008B5A0230120DB055870FFF773
:104E4000CFFCFFF7F7FCFFF715FF08BD70B5041C9A
:104E5000104E114D11D10120FFF738FD33680122AA
:104E60001A70A023DB056C705C701A70FFF7E2FF0C
:104E7000FFF7E0FCFFF7A2FD0224201CFFF726FD50
:104E8000336800221C70A023DB056A705A7001226F
:104E90001A7070BD10010020740C002008B5FFF7D7
:104EA000D5FFFFF7C7FF08BDA02380B2DB05D8827E
:104EB0009882704773B51E4BA0221B68D2055168BB
:104EC000D96E6C3351601C78FFF7F6FA194D002843
:104ED00021D0194A194B1B781078194ADBB2117886
:104EE000C0B200290AD0D02C04DD1378D121DBB266
:104EF000EF2205E01078D122C0B200E0EF221021AD
:104F000040B22E685BB20090201C02F0C1F82B6802
:104F100030671B6FE418002C01DA002402E0FF2C3C
:104F200000DDFF242B68E0B2DC66FFF78EFD73BD69
:104F3000940C0020100100205200020051000200D9
:104F40005300020008B5002801D0012801D101F06A
:104F5000CDFAFFF709FBFFF7ADFFFFF737FB08BD01
:104F6000F0B5364CA54401F033F8354B80221D686E
:104F7000A023DB05D968AD00D203AD0E0A43DA6089
:104F80006B1EA022DBB2D20520AFFF2B1ED0D4684F
:104F90003F202C491840000421400143D160C04605
:104FA000294A6846D18F5A0081522849013BC98F4E
:104FB000B9522749C88F40A988522649C88F60A98D
:104FC00088522549088880A98852DAE7D168234B9E
:104FD000234C0B40D3600226DC23211C6A460020B0
:104FE00023716570E67001F07BFFDD23211C3A1C04
:104FF000002023716570E67001F072FFDE23211C32
:1050000040AA002023716570E67001F069FFDF237C
:10501000211C60AA002023716570E67001F060FF1A
:10502000E0230020211C80AA6570E670237101F046
:1050300057FFA1239B009D44F0BDC0467CFDFFFFB0
:10504000A0800050FFFFC0FF02000050040000508D
:10505000060000500800005048000050FFFFBFFF4E
:1050600018010020F7B5041C02F0B0FB124B1A68BF
:1050700000235068411C0191019D16689D420CDB84
:10508000976801367E4399008C469E19002165463B
:10509000B600615101333151EEE701239E420ADB34
:1050A000956800215D43AF002D180135AD003951E1
:1050B00001332951F2E7F7BD14030020044B0549E1
:1050C00000221A6059609A6005221A607047C04633
:1050D00010E000E0FFFFFF0010B50E4AA0231268A9
:1050E000DB055C685B68116FDBB2CB1A2421FF33F0
:1050F000FF3159436401E40F074B0134A040C91844
:10510000041C0648FAF7F4FFC1B2201CFAF7F0FFBE
:1051100010BDC046100100203969000040420F0058
:10512000014B00221A60704710E000E013B50B4CF1
:105130000B48A368C01A0193FFF7CEFF094901236A
:105140004B7004230190CB7000206F2301AA0B71D8
:1051500001F0C6FE00230198236016BD10E000E0B8
:10516000FFFFFF001801002010B5041CFFF7A6FF89
:10517000201CFFF76BFEA023DB0501205870FFF712
:1051800045FBFFF757FBFFF775FDFFF7CFFF10BD9E
:10519000F7B5234800F008F9FFF7A6FA214F0025DC
:1051A000214E224CB7421FD28036F31B2026832B80
:1051B00000DC9E100123667000203A1C211CB610F2
:1051C000E370207101F08CFE3B1C321C013A08D3C5
:1051D000002D04D116491868884200D01D1C0433E4
:1051E000F4E7B600BF19DBE70E4904226B1A01276A
:1051F0000193E270A723211C01AA0020677023718C
:10520000843601F06DFE0423751BE3700020A82393
:10521000211C01AA01956770237101F061FEF7BDA1
:10522000801A0600C00C0020801B002018010020FE
:10523000CDCDCDCD014B1B68D87C7047100100202F
:1052400070B5051CFFF7B0FC094B1C68E37C9A00A5
:10525000AD180022511ED218002A08D0E2185218A8
:10526000127D920016588A00AE500A1CF2E770BDFB
:105270001001002030B50A4B1B68DA7C94001C1921
:105280005300C01800230133D11A013106D09D000C
:10529000651B59006D6F49424552F4E730BDC04669
:1052A00010010020F8B50C1C051CFFF7F9F8144993
:1052B00008688379013B11D30E687279013AF9D3FA
:1052C0000E6870790F4E584336688018F618281803
:1052D00078360778F678BE190670EFE70B68DB7949
:1052E000013B08D3074AE15C1268D2188832527930
:1052F0008A18E254F4E7281C211C01F063F9F8BD78
:10530000980C0020940C0020134BF7B51C686946DC
:10531000E26800AF131C0E33DB08DB00C91A2369F7
:105320008D460E33DB08DB00C91A0C4B6D461E6838
:105330008D467960281C311C03F09AFF98235B008E
:10534000F1182269786803F093FF281C7968FFF749
:10535000A9FFBD46F7BDC04614030020900C0020F5
:1053600038B5A023DB0559685D680C4B041C1B682D
:105370000B481B6F6D01CB1ADB432421DBB2FF31DD
:105380005943084BED0FC918FAF7B2FE044B01352B
:105390005843211C2841FAF7ABFE38BD100100200C
:1053A00040420F003969000038B5A023DB05596879
:1053B0005C680A4B051C1B6809481B6F6401CB1A0B
:1053C000DB432421DBB2FF315943064BE40FC918FC
:1053D000FAF78EFE68430134204138BD10010020E9
:1053E00040420F003969000008B500280CD013298D
:1053F00003DC0A2905DA00230EE014290CD104236A
:105400000AE049104B1F07E0142900DD0C39081C85
:105410000321FAF76DFE031C181C08BDF0B5131C20
:105420000F2A00DD0F230F242340002A00DA002377
:10543000DDB200231A188A420BDA064C064E021916
:10544000D21812011768EC063E4034431460013351
:10545000F0E7F0BD10080005FFFFFF8710B50F4B08
:105460000278C900C9183F230C681A400C4B120679
:10547000234013430B6042781F230C681A40094BEA
:105480001204234013430B608278072308681A40F4
:10549000054B1202034013430B6010BD8080005087
:1054A000FFFFFFC0FFFFE0FFFFF8FFFFF0B5384B45
:1054B000384E1B68384DDB79002B25D032683749D0
:1054C00008208018844688C888C1354B60461F1C58
:1054D00012C812C7977D3F210F4019683F06294027
:1054E00039431960D77D1F210F402E4819683F04AA
:1054F000014039431960117E072211402A4C1A6875
:10550000090222400A431A603368284A1E1C81CED1
:1055100081C227491E1C0A1C90CE90C2DF7C0E68F7
:105520003F2007403F062E403E430E601E7D0F6821
:105530001F241C482640074036043E430E605F7D12
:105540000E6807242740184C301C20403F020743B8
:105550000F60111C1F1C41CF41C1197C17683F24EB
:1055600021403D4009060D431560597C15681F26F2
:105570000C4C31402C4009040C4314609B7C0726E2
:105580001E40094813683602184030431060F0BDD1
:10559000980C0020940C0020FFFFFFC0808000507A
:1055A00098800050FFFFE0FFFFF8FFFFA080005051
:1055B000B8800050174B30B51A681749131C3C339C
:1055C00030CB30C1154B1968154B181C30C930C091
:1055D000111C543108783F211C680840114900060D
:1055E000214001431960111C553108781F211C68A6
:1055F00008400D49000421400143196056321178DA
:10560000072218681140094A090202400A431A6039
:1056100030BDC046980C0020D0800050940C002073
:10562000C8800050FFFFFFC0FFFFE0FFFFF8FFFF53
:10563000F0B5AC4E95B03568EB79002B00D112E196
:105640002B1C2F331B780024093BDBB20B22201CC0
:105650009A426041C3B2211C0EA81822069303F09F
:1056600049FE069F0BA90A940C940D940C70A74256
:1056700035D0687A231C0290201CFF242A1C039436
:10568000029F511BB9421DDA111C2F3109780B29D9
:105690000CDC039F0939BC460127BC446746FFB2B6
:1056A000039701278F403843C0B209E0112907DD75
:1056B0001427791A01278F4001343B43E4B2DBB24F
:1056C0000132DDE70538039F421E9041033B404213
:1056D0005A1E934107405B4203971C4001E0FF24A0
:1056E0000394814B36681B680596002701260993B1
:1056F00004960797049F059E013F0897737A9F427F
:1057000000DB92E0049F059E0698F3192E331D7866
:10571000291CFFF769FE071E042F01D90020F2E1C2
:105720000AA8C35D022BF9DC099E08983F223118B4
:105730002831C8783E1C9043844698011640029058
:10574000604606430298324010430133079EC870FA
:10575000DBB20AA9CB559E4200DA0793069E002EC3
:105760001FD0092D0AD0142D10D163B20EAADB0070
:10577000D3185E6880225203324310E0039E0EA8C5
:1057800073B2DB008022C318920006E001222B1CBA
:105790001340DB000EA8C318AA4059680A435A6098
:1057A0000BE0281C0321FAF7F9FC0EAAC9005118D6
:1057B0004E680123AB4033434B600EAE70680699D0
:1057C000F06000291BD005235F43049A0E9BBA406A
:1057D0001A43D2015B0ED2095B061343059A0E935E
:1057E000537A08981B180133BB401F1CB3681F4332
:1057F000FF015B0EFF095B063B43B36011E0281C11
:105800000321FAF7CBFC05235F43049AC9008B59A7
:10581000BA40171C1F43FF015B0EFF095B063B43A9
:105820008B51049E0136049664E72F4B079F1B683B
:105830000EA932331F707379C8781F2202331340C8
:105840003E225B0090431843C870C87A90430343DC
:10585000CB720822254803F00BFD10A9082224482A
:1058600003F006FD01E0FF2403941E4B00251B6896
:105870000B220493DB7A281C093BDBB29A42684175
:10588000C3B2291C0EA81822079303F033FD079E0C
:105890000BA90A950C950D950D70AE4236D0049F5C
:1058A000FF2478793B1C291C0394049E9A1B824296
:1058B00020DADA7A0B2A09DC039E093A0136F6B2BD
:1058C0000396012696403143C9B209E0112A07DD4B
:1058D0001426B21A0126964001343543E4B2EDB2E3
:1058E0000133E2E7980C00201001002020800050D6
:1058F000388000500539039F4B1E9941033D4942B2
:105900006B1E9D410F406D4203972C407F4B0C98BE
:105910001B680D9E0693C301DB09099600260893B8
:10592000012705967E1E0296049E7379029E9E4272
:1059300000DBB1E0049E0798F3199D7A291CFFF75C
:1059400053FD061C07980321091A281CFAF726FCA8
:10595000059A914201DB4B1C0593042E00D9DDE62C
:105960000AA8835D022B00DDD8E60298069A890119
:1059700012180292301C3F221040019002980091B0
:10598000407890438446019861460843009902405C
:105990001143029A5170002B15D10698C27C511CFC
:1059A000C1748218791E117505227243391C08983A
:1059B00091400A1C024301210998D201A9400843E1
:1059C000D20909900892052272430898069910415D
:1059D000C919844602911F20614608400299013886
:1059E000087601330AA8079983553E1C9640002982
:1059F00025D0092D0BD0142D14D163B20EAADB00D3
:105A0000D31858688022520302435A6029E0039A4F
:105A10000EA853B2DB00C3185968802292000A43D3
:105A20005A601AE001222B1C1340DB000EA9CB1890
:105A30005868AA4002435A60092D12D10DE0281C73
:105A40000321FAF7ABFB0EABC90001205A18A8409E
:105A5000051C50680543556008E0039A0EAB51B22F
:105A600003E00EAB142D0AD161B2C9005A58164397
:105A7000F601520EF609520632435A500AE001224C
:105A80001540ED005A591643F601520EF60952061A
:105A900032435A51013745E70C9F089E7B0E5B0647
:105AA00033430C93194B099F1B68059E0CAC3A338A
:105AB00067601E700025049E059F7379BD4213DA4E
:105AC000E9001F2202330EAF791813405A00CB7839
:105AD0003E20834313430E4ACB70A818C00008220F
